:060000000A128A110C280F
:10000800FE00030EF5000A08F6000A128A111329E9
:100018000A128A110F280A128A1105220A128A1155
:10002800F800F70183010A128A11D9291A308312BC
:100038000313A300F730A200A20B2028A30B20284B
:100048002528882883160313051483160317081414
:10005800BB28831603138514831603178814BB283B
:10006800831603130515831603170815BB28831673
:1000780003138515831603178815BB2883160313E6
:100088008516831603178816BB28831603130914CD
:10009800831603170817BB288316031389148316BE
:1000A80003178817BB28831603130915831603172C
:1000B8000808BB28831603130615831603170914AB
:1000C800BB28831603138615831603178914BB28C8
:1000D800831603138614831603170915BB28831682
:1000E80003130616831603178915BB2883160313F3
:1000F8000614831603170916BB28831603138616DE
:10010800831603178916BB28831203132108003AA4
:1001180003198F28BB282008003A03192628013A1A
:1001280003192D28033A03193428013A03193B28E7
:10013800073A03194228013A03194928033A0319CF
:100148005028013A031957280F3A03195E28013A33
:1001580003196528033A03196C28013A031973280F
:10016800073A03197A28013A03198128BB28831210
:1001780003132008A200A20DA20D1F082206C339EE
:1001880022069F0008008316031788018901831639
:100198000313850183120313850183160313860154
:1001A800831203138601831603138701071683122C
:1001B800031387018316031388018312031388012D
:1001C8008316031389018312031389018B170B17F5
:1001D8008C11831603138C15851683120313A00143
:1001E800A101A20124300A128A11BB210A128A1124
:1001F80000300A128A115D210A128A1101300A128E
:100208008A115D210A128A11003083120313A40097
:10021800A5000A128A119B210A128A11080083126A
:1002280003130C1F1829192925290A128A11E521F7
:100238000A128A117008F7007708831203138800DE
:100248000C130B1C28292929382906182C292D2993
:1002580031290130F4007408F80786183429352943
:1002680037290130F8020B108C1D3B293C295629EF
:100278000A128A11EF210A128A11003A031D452930
:1002880046294D2978080A128A11FF210A128A1173
:10029800532977080A128A11FF210A128A11831238
:1002A80003138C1176088A00750E8300FE0E7E0EED
:1002B800090083120313A2008B150B108316031376
:1002C8008113013083120313A000220A6D29031041
:1002D800A00DFF3E031D6B292008A10021088316ED
:1002E80003138604013083120313A000220A7E2917
:1002F8000310A00DFF3E031D7C292008A100210842
:10030800831603139504013083120313A000220AF5
:100318008F290310A00DFF3E031D8D292008A10081
:1003280021088316031396048B170B1708008312F2
:1003380003130C13831603130C17831203131F08DC
:100348003F3940389F002508A1002408A0000A1260
:100358008A111A200A128A11831603139F131F1277
:100368009F12831203131F148B170B170800831295
:100378000313A30083160313871283120313231D89
:10038800C629C729CD292208831603139400871587
:10039800D32920082204831603139400871183129B
:1003A800031323082104940008000A128A11C720A5
:1003B8000A128A11831203139F14DE290A128A1162
:1003C8000C28831203131E08F200F3017208F000D0
:1003D8007308F10008000A128A11F8210A128A111A
:1003E800831203131308080083160313141CFD2932
:1003F800FE29F8290800F0007008831203139300FF
:0404080008009D3417
:08400000FF3FFF3FFF3FFF3FC0
:04400E00D420FF3F7C
:00000001FF
