:100000000A128A11F72F00308A000408840A820736
:10001000003450346F34743431343A342034503432
:100020006F34743432343A342034433450345534D9
:040030003A3400342A
:10088A00F00070088312031388000800F000700853
:10089A00831203139300080001300A128A11942468
:1008AA000A128A11080083160313141C5D2C5E2C8D
:1008BA00582C08000A128A1158240A128A11831223
:1008CA00031313080800F200831203138914720831
:1008DA000A128A1145240A128A118312031309146F
:1008EA001A30F100F10B772C000083120313091060
:1008FA000800F300831603138712731D852C862CB8
:10090A008A2C7208940087158E2C70087204940041
:10091A008711730871048312031394000800F3000B
:10092A0083120313891073080A128A1145240A12C2
:10093A008A118312031309140B30F2006230F1009A
:10094A00F10BA52CF20BA52C00008312031309103E
:10095A000800F5007503031DB32CB42CBE2C7408D3
:10096A007F3EF60076080A128A1194240A128A1126
:10097A00CD2C02307506031DC32CC42CCD2C740853
:10098A00BF3EF60076080A128A1194240A128A11C6
:10099A000800F500F301F401E52C730875078400DB
:1009AA000A128A1103200A128A110A128A11682469
:1009BA000A128A110130F3070318F40A0030F40707
:1009CA007308750784000A128A1103200A128A1111
:1009DA00003A031DF12CF22CD22C080083160317BF
:1009EA008801890183160313850183120313850184
:1009FA0083160313860183120313860183160313D6
:100A0A0087010716831203138701831603138801CC
:100A1A0083120313880183160313890183120313B4
:100A2A00890187140715F001F101F20120300A1239
:100A3A008A117E240A128A117030831603138F04D6
:100A4A000F140A128A113F250A128A110A128A11F0
:100A5A0051240A128A11F401F40A01300A128A1185
:100A6A00AE240A128A1101300A128A11CE240A12FD
:100A7A008A11080000300A128A1145240A128A11C2
:100A8A003430F500F130F400F40B492DF50B492D03
:100A9A004E2D38300A128A1194240A128A110D3006
:100AAA00F500FB30F400F40B582DF50B582D5D2D95
:100ABA0038300A128A1194240A128A111D30F5005C
:100ACA009130F400F40B672DF50B672D38300A12BC
:100ADA008A1194240A128A110C300A128A11942457
:100AEA000A128A110D30F500FB30F400F40B7B2D4D
:100AFA00F50B7B2D802D01300A128A1194240A12DB
:100B0A008A1106300A128A1194240A128A110800DC
:100B1A00F601F31F912D922D992DF209F309F20A8C
:100B2A000319F30AF601F60AF11F9C2D9D2DA22D39
:100B3A00F009F109F00A0319F10A7008710403199E
:100B4A00A72DA82DD72DF501F50AB62D01300310D2
:100B5A00F00DF10DFF3E031DAC2D0130F4007408B9
:100B6A00F507F11FB92DBA2DAB2D71087302031DBC
:100B7A00C02D70087202031CC32DC42DCA2D700823
:100B8A00F2027108031CF303F30201300310F10CA3
:100B9A00F00CFF3E031DCB2D0130F502031DD62DAF
:100BAA00D72DBA2D76080319DB2DDC2DE12DF2099C
:100BBA00F309F20A0319F30A7308F1007208F00044
:100BCA00080083120313A101F81FEC2DED2DF42D5B
:100BDA00F709F809F70A0319F80AA101A10AFA1F85
:100BEA00F72DF82D012EF909FA09F90A0319FA0A5B
:100BFA000130FB007B08A106A201A3017708780453
:100C0A000319082E092E402EA001A00A172E013022
:100C1A000310F70DF80DFF3E031D0D2E0130FB00EA
:100C2A007B08A007F81F1A2E1B2E0C2E013003106A
:100C3A00A20DA30DFF3E031D1C2E78087A02031D88
:100C4A00282E77087902031C2B2E2C2E332E770898
:100C5A00F9027808031CFA03FA022214013003107D
:100C6A00F80CF70CFF3E031D342E0130A002031DC1
:100C7A003F2E402E1B2E21080319442E452E4A2EA4
:100C8A00A209A309A20A0319A30A2308F800220841
:100C9A00F70008000A128A11F3240A128A11023094
:100CAA0083120313A6000430A500B930A400A40BD4
:100CBA005C2EA50B5C2EA60B5C2E632E83120313EF
:100CCA008710033083120313A5009730A400A40BE6
:100CDA006C2EA50B6C2E00300A128A114B240A12B4
:100CEA008A110A128A115F240A128A11FD0003303E
:100CFA0083120313A5009730A400A40B822EA50B20
:100D0A00822E83120313871487100330831203136E
:100D1A00A5009730A400A40B902EA50B902E0130AD
:100D2A000A128A114B240A128A110A128A115F24A2
:100D3A000A128A1183120313A700033083120313C2
:100D4A00A5009730A400A40BA82EA50BA82E8312E9
:100D5A00031387140711033083120313A500973076
:100D6A00A400A40BB62EA50BB62E00300A128A11C7
:100D7A004B240A128A110A128A115F240A128A1152
:100D8A00FC00033083120313A5009730A400A40BC0
:100D9A00CC2EA50BCC2E831203130715F401F40AEB
:100DAA0002300A128A11AE240A128A116430F7003C
:100DBA000030F8007D0883120313A400A50124085B
:100DCA00F9002508FA000A128A11E6250A128A1180
:100DDA007708303E0A128A1168240A128A110A30E8
:100DEA00F7000030F8007D0883120313A400A50160
:100DFA002408F2002508F3006430F0000030F10006
:100E0A000A128A118D250A128A117108FA007008CD
:100E1A00F9000A128A11E6250A128A117708303E69
:100E2A000A128A1168240A128A110A30F000003064
:100E3A00F1007D0883120313A400A5012408F2001F
:100E4A002508F3000A128A118D250A128A117008E0
:100E5A00303E0A128A1168240A128A110730F400F5
:100E6A0002300A128A11AE240A128A116430F7007B
:100E7A000030F8007C0883120313A400A50124089B
:100E8A00F9002508FA000A128A11E6250A128A11BF
:100E9A007708303E0A128A1168240A128A110A3027
:100EAA00F7000030F8007C0883120313A400A501A0
:100EBA002408F2002508F3006430F0000030F10045
:100ECA000A128A118D250A128A117108FA0070080D
:100EDA00F9000A128A11E6250A128A117708303EA9
:100EEA000A128A1168240A128A110A30F0000030A4
:100EFA00F1007C0883120313A400A5012408F20060
:100F0A002508F3000A128A118D250A128A1170081F
:100F1A00303E0A128A1168240A128A110D30F4002E
:100F2A0002300A128A11AE240A128A116430F700BA
:100F3A000030F800831203132708A400A50124082F
:100F4A00F9002508FA000A128A11E6250A128A11FE
:100F5A007708303E0A128A1168240A128A110A3066
:100F6A00F7000030F800831203132708A400A50134
:100F7A002408F2002508F3006430F0000030F10084
:100F8A000A128A118D250A128A117108FA0070084C
:100F9A00F9000A128A11E6250A128A117708303EE8
:100FAA000A128A1168240A128A110A30F0000030E3
:100FBA00F100831203132708A400A5012408F200F4
:100FCA002508F3000A128A118D250A128A1170085F
:100FDA00303E0A128A1168240A128A11542E0A1201
:100FEA008A110028FC01FD0183120313A701830162
:060FFA000A128A114F2EBD
:08400000FF3FFF3FFF3FFF3FC0
:04400E00D420FF3F7C
:00000001FF
