:060000000A128A110C280F
:10000800FE00030EF4000A08F5000A128A110129FD
:100018000A128A110F28F70183010A128A116B2923
:100028001A3083120313A300F730A200A20B1A2878
:10003800A30B1A281F288228831603130514831676
:1000480003170814B528831603138514831603179A
:100058008814B52883160313051583160317081586
:10006800B528831603138515831603178815B52835
:10007800831603138516831603178816B528831667
:1000880003130914831603170817B52883160313D7
:100098008914831603178817B528831603130915BF
:1000A800831603170808B528831603130615831645
:1000B80003170914B5288316031386158316031727
:1000C8008914B52883160313861483160317091594
:1000D800B528831603130616831603178915B52842
:1000E800831603130614831603170916B5288316F7
:1000F80003138616831603178916B528831203136C
:100108002108003A03198928B5282008003A03195C
:100118002028013A03192728033A03192E28013AFF
:1001280003193528073A03193C28013A03194328CB
:10013800033A03194A28013A031951280F3A0319B7
:100148005828013A03195F28033A03196628013A27
:1001580003196D28073A03197428013A03197B28F3
:10016800B528831203132008A200A20DA20D1F08B0
:100178002206C33922069F00080083160317880148
:1001880089018316031385018312031385018316DE
:100198000313860183120313860183160313870151
:1001A800071683120313870183160313880183122A
:1001B800031388018316031389018312031389012A
:1001C8008B170B178C11831603138C158516831246
:1001D8000313A001A101A20124300A128A114D21A2
:1001E8000A128A11003083120313A400A5000A1210
:1001F8008A112D210A128A110800831203138C1DFB
:100208000629072918290A128A1181210A128A1136
:1002180083120313880077080A128A1191210A129F
:100228008A11831203138C110C1F1B291C292629E0
:100238000A128A1177210A128A117008F7008312AC
:1002480003130C1375088A00740E8300FE0E7E0ECD
:100258000900831203130C13831603130C1783125C
:1002680003131F083F3940389F002508A1002408C0
:10027800A0000A128A1114200A128A118316031385
:100288009F131F129F12831203131F148B170B1730
:100298000800F600831603138712761D5429552982
:1002A8005D2983120313220883160313940087150C
:1002B800652983120313200822048316031394006C
:1002C80087117608831203132104940008000A1288
:1002D8008A11C1200A128A11831203139F147029EC
:1002E8000A128A110C28831203131E08F200F30164
:1002F8007208F0007308F10008000A128A118A21B6
:100308000A128A11831203131308080083160313B1
:10031800141C8F2990298A290800F000700883127C
:060328000313930008001E
:08400000FF3FFF3FFF3FFF3FC0
:04400E00D420FF3F7C
:00000001FF
